{
  "contractName": "Saving",
  "abi": [
    {
      "constant": true,
      "inputs": [
        {
          "name": "",
          "type": "uint256"
        }
      ],
      "name": "records",
      "outputs": [
        {
          "name": "amount",
          "type": "uint256"
        },
        {
          "name": "time",
          "type": "uint256"
        },
        {
          "name": "addr",
          "type": "address"
        }
      ],
      "payable": false,
      "stateMutability": "view",
      "type": "function"
    },
    {
      "constant": true,
      "inputs": [
        {
          "name": "",
          "type": "address"
        }
      ],
      "name": "validUsers",
      "outputs": [
        {
          "name": "",
          "type": "bool"
        }
      ],
      "payable": false,
      "stateMutability": "view",
      "type": "function"
    },
    {
      "constant": true,
      "inputs": [],
      "name": "owner",
      "outputs": [
        {
          "name": "",
          "type": "address"
        }
      ],
      "payable": false,
      "stateMutability": "view",
      "type": "function"
    },
    {
      "inputs": [],
      "payable": false,
      "stateMutability": "nonpayable",
      "type": "constructor"
    },
    {
      "anonymous": false,
      "inputs": [
        {
          "indexed": false,
          "name": "amount",
          "type": "uint256"
        },
        {
          "indexed": false,
          "name": "action",
          "type": "string"
        },
        {
          "indexed": false,
          "name": "time",
          "type": "uint256"
        }
      ],
      "name": "BalanceChanged",
      "type": "event"
    },
    {
      "anonymous": false,
      "inputs": [
        {
          "indexed": false,
          "name": "addr",
          "type": "address"
        },
        {
          "indexed": false,
          "name": "action",
          "type": "string"
        }
      ],
      "name": "UserChanged",
      "type": "event"
    },
    {
      "constant": false,
      "inputs": [
        {
          "name": "_addr",
          "type": "address"
        }
      ],
      "name": "addUser",
      "outputs": [],
      "payable": false,
      "stateMutability": "nonpayable",
      "type": "function"
    },
    {
      "constant": false,
      "inputs": [
        {
          "name": "_addr",
          "type": "address"
        }
      ],
      "name": "removeUser",
      "outputs": [],
      "payable": false,
      "stateMutability": "nonpayable",
      "type": "function"
    },
    {
      "constant": false,
      "inputs": [],
      "name": "deposit",
      "outputs": [],
      "payable": true,
      "stateMutability": "payable",
      "type": "function"
    },
    {
      "constant": false,
      "inputs": [
        {
          "name": "amount",
          "type": "uint256"
        }
      ],
      "name": "withdraw",
      "outputs": [],
      "payable": false,
      "stateMutability": "nonpayable",
      "type": "function"
    },
    {
      "constant": true,
      "inputs": [],
      "name": "howMuchWithdrawed",
      "outputs": [
        {
          "name": "",
          "type": "uint256"
        }
      ],
      "payable": false,
      "stateMutability": "view",
      "type": "function"
    }
  ],
  "bytecode": "0x608060405234801561001057600080fd5b50336000806101000a81548173ffffffffffffffffffffffffffffffffffffffff021916908373ffffffffffffffffffffffffffffffffffffffff160217905550336000806101000a81548173ffffffffffffffffffffffffffffffffffffffff021916908373ffffffffffffffffffffffffffffffffffffffff160217905550610ae2806100a06000396000f30060806040526004361061008e576000357c0100000000000000000000000000000000000000000000000000000000900463ffffffff1680632e1a7d4d1461009357806334461067146100c0578063375c4b791461013b578063421b2d8b146101965780637f582b47146101d95780638da5cb5b14610204578063985751881461025b578063d0e30db01461029e575b600080fd5b34801561009f57600080fd5b506100be600480360381019080803590602001909291905050506102a8565b005b3480156100cc57600080fd5b506100eb6004803603810190808035906020019092919050505061057a565b604051808481526020018381526020018273ffffffffffffffffffffffffffffffffffffffff1673ffffffffffffffffffffffffffffffffffffffff168152602001935050505060405180910390f35b34801561014757600080fd5b5061017c600480360381019080803573ffffffffffffffffffffffffffffffffffffffff1690602001909291905050506105d3565b604051808215151515815260200191505060405180910390f35b3480156101a257600080fd5b506101d7600480360381019080803573ffffffffffffffffffffffffffffffffffffffff1690602001909291905050506105f3565b005b3480156101e557600080fd5b506101ee6107ad565b6040518082815260200191505060405180910390f35b34801561021057600080fd5b506102196107bc565b604051808273ffffffffffffffffffffffffffffffffffffffff1673ffffffffffffffffffffffffffffffffffffffff16815260200191505060405180910390f35b34801561026757600080fd5b5061029c600480360381019080803573ffffffffffffffffffffffffffffffffffffffff1690602001909291905050506107e1565b005b6102a661099c565b005b6102b0610a7e565b600160003373ffffffffffffffffffffffffffffffffffffffff1673ffffffffffffffffffffffffffffffffffffffff16815260200190815260200160002060009054906101000a900460ff161515610371576040517f08c379a000000000000000000000000000000000000000000000000000000000815260040180806020018281038252600e8152602001807f6e6f742076616c6964207573657200000000000000000000000000000000000081525060200191505060405180910390fd5b678ac7230489e800006103826107ad565b1015156103f7576040517f08c379a00000000000000000000000000000000000000000000000000000000081526004018080602001828103825260118152602001807f776974686472617720746f6f206d75636800000000000000000000000000000081525060200191505060405180910390fd5b3373ffffffffffffffffffffffffffffffffffffffff166108fc839081150290604051600060405180830381858888f1935050505015801561043d573d6000803e3d6000fd5b506060604051908101604052808381526020014281526020013373ffffffffffffffffffffffffffffffffffffffff16815250905060028190806001815401808255809150509060018203906000526020600020906003020160009091929091909150600082015181600001556020820151816001015560408201518160020160006101000a81548173ffffffffffffffffffffffffffffffffffffffff021916908373ffffffffffffffffffffffffffffffffffffffff1602179055505050507fc64050997bfd5da6c0e9e9cb75df79fef8651b719522d9b9e50837c36f29528982426040518083815260200180602001838152602001828103825260088152602001807f7769746864726177000000000000000000000000000000000000000000000000815250602001935050505060405180910390a15050565b60028181548110151561058957fe5b90600052602060002090600302016000915090508060000154908060010154908060020160009054906101000a900473ffffffffffffffffffffffffffffffffffffffff16905083565b60016020528060005260406000206000915054906101000a900460ff1681565b6000809054906101000a900473ffffffffffffffffffffffffffffffffffffffff1673ffffffffffffffffffffffffffffffffffffffff163373ffffffffffffffffffffffffffffffffffffffff161415156106b7576040517f08c379a00000000000000000000000000000000000000000000000000000000081526004018080602001828103825260098152602001807f6e6f74206f776e6572000000000000000000000000000000000000000000000081525060200191505060405180910390fd5b60018060008373ffffffffffffffffffffffffffffffffffffffff1673ffffffffffffffffffffffffffffffffffffffff16815260200190815260200160002060006101000a81548160ff0219169083151502179055507f4518fb44f0ce847ddd7137ece6f65b38ae2dcbf4862a680333b9401ef1ef65bc81604051808273ffffffffffffffffffffffffffffffffffffffff1673ffffffffffffffffffffffffffffffffffffffff16815260200180602001828103825260038152602001807f61646400000000000000000000000000000000000000000000000000000000008152506020019250505060405180910390a150565b60006107b7610a16565b905090565b6000809054906101000a900473ffffffffffffffffffffffffffffffffffffffff1681565b6000809054906101000a900473ffffffffffffffffffffffffffffffffffffffff1673ffffffffffffffffffffffffffffffffffffffff163373ffffffffffffffffffffffffffffffffffffffff161415156108a5576040517f08c379a00000000000000000000000000000000000000000000000000000000081526004018080602001828103825260098152602001807f6e6f74206f776e6572000000000000000000000000000000000000000000000081525060200191505060405180910390fd5b6000600160008373ffffffffffffffffffffffffffffffffffffffff1673ffffffffffffffffffffffffffffffffffffffff16815260200190815260200160002060006101000a81548160ff0219169083151502179055507f4518fb44f0ce847ddd7137ece6f65b38ae2dcbf4862a680333b9401ef1ef65bc81604051808273ffffffffffffffffffffffffffffffffffffffff1673ffffffffffffffffffffffffffffffffffffffff16815260200180602001828103825260068152602001807f72656d6f766500000000000000000000000000000000000000000000000000008152506020019250505060405180910390a150565b7fc64050997bfd5da6c0e9e9cb75df79fef8651b719522d9b9e50837c36f29528934426040518083815260200180602001838152602001828103825260078152602001807f6465706f73697400000000000000000000000000000000000000000000000000815250602001935050505060405180910390a1565b600080600080600091505b600280549050821015610a7557600282815481101515610a3d57fe5b9060005260206000209060030201905062015180816001015442031015610a68578060000154830192505b8180600101925050610a21565b82935050505090565b6060604051908101604052806000815260200160008152602001600073ffffffffffffffffffffffffffffffffffffffff16815250905600a165627a7a72305820024b2e40ef0e3d7854dbb6a8cfc7cb5d5f33bb9298fc6fb20b15e3eb16fb10ee0029",
  "source": "pragma solidity ^0.4.24;\r\n\r\nimport \"./Ownable.sol\";\r\n\r\ncontract Saving is Ownable {\r\n    \r\n    struct Record {\r\n        uint amount;\r\n        uint time;\r\n        address addr;\r\n    }\r\n    \r\n    event BalanceChanged(uint amount, string action, uint time);\r\n    event UserChanged(address addr, string action);\r\n    \r\n    mapping(address => bool) public validUsers;\r\n    Record[] public records;\r\n    \r\n    uint constant LIMIT = 10 ether;\r\n    \r\n    modifier isValidUser() {\r\n        require(validUsers[msg.sender], \"not valid user\");\r\n        _;\r\n    }\r\n    \r\n    constructor() public {\r\n        owner = msg.sender;\r\n    }\r\n    \r\n    function addUser(address _addr) external isOwner {\r\n        validUsers[_addr] = true;\r\n        emit UserChanged(_addr, \"add\");\r\n    }\r\n    \r\n    function removeUser(address _addr) external isOwner {\r\n        validUsers[_addr] = false;\r\n        emit UserChanged(_addr, \"remove\");\r\n    }\r\n    \r\n    function deposit() payable external {\r\n        emit BalanceChanged(msg.value, \"deposit\", now);\r\n    }\r\n    \r\n    function withdraw(uint amount) external isValidUser {\r\n        if (howMuchWithdrawed() >= LIMIT) {\r\n            revert(\"withdraw too much\");\r\n        }\r\n        \r\n        msg.sender.transfer(amount);\r\n        \r\n        Record memory record = Record({\r\n            amount: amount,\r\n            time: now,\r\n            addr: msg.sender\r\n        });\r\n        \r\n        records.push(record);\r\n        \r\n        emit BalanceChanged(amount, \"withdraw\", now);\r\n    }\r\n    \r\n    function howMuchWithdrawed() public view returns(uint) {\r\n        return _howMuchWithdrawed();\r\n    }\r\n    \r\n    function _howMuchWithdrawed() private view returns(uint) {\r\n        uint sum;\r\n        for (uint i = 0; i < records.length; i++) {\r\n            Record storage record = records[i];\r\n            if (now - record.time < 1 days) {\r\n                sum = sum + record.amount;\r\n            }\r\n        }\r\n        return sum;\r\n    }\r\n}\r\n",
  "sourcePath": "/home/washwash/course/truffle-react/contracts/Saving.sol",
  "compiler": {
    "name": "solc",
    "version": "0.4.24+commit.e67f0147.Emscripten.clang"
  },
  "schemaVersion": "2.0.1",
  "updatedAt": "2018-10-18T14:44:34.708Z"
}